S01400004D79426F6F746C6F616465722E737265633F
S11300000C9434000C9451000C9451000C94510045
S11300100C9451000C9451000C942A010C9451003E
S11300200C9451000C9451000C9451000C94510008
S11300300C9451000C9451000C9451000C945100F8
S11300400C9451000C9451000C9451000C945100E8
S11300500C9451000C9451000C9451000C945100D8
S11300600C9451000C94510011241FBECFEFD8E022
S1130070DEBFCDBF11E0A0E0B1E0E0E3F3E002C0F9
S113008005900D92A234B107D9F721E0A2E4B1E0C2
S113009001C01D92A43CB207E1F70E943D010C94FB
S11300A096010C94000081E088B9389880E284B904
S11300B085B90895611521EE72078105910548F50A
S11300C0DC01CB01880F991FAA1FBB1F880F991F42
S11300D0AA1FBB1F9C01AD01220F331F441F551FD4
S11300E060E074E284EF90E00E947401DA01C901D7
S11300F00197A109B109AC01BD01769567955795A2
S11301004795942F252FE0ECF0E080818D7F80834C
S113011022C09B01AC01220F331F441F551F220F25
S1130120331F441F551F60E074E284EF90E00E9487
S11301307401DA01C9010197A109B109AC01BD013A
S11301407695679557954795942F252FE0ECF0E029
S11301508081826080832093C5009093C4008AE0EC
S11301608093C20088E18093C1000895E0ECF0E040
S1130170908195FFFDCF8093C6000895E0ECF0E0F8
S113018080818823ECF78091C6000895CF93DF9394
S1130190FC012081222361F0EC012A3019F48DE066
S11301A00E94B60089910E94B60028812111F5CFE2
S11301B0DF91CF910895FC01DB0191E02C91119620
S11301C08C91119730E0382B090190935700E895F2
S11301D0112432961296F2CF0F931F93CF938C0172
S11301E0C0E00E94BE00F80181938F018AE20E9460
S11301F0B600CF5FC038A9F780E8CF911F910F9167
S1130200089580E091E00E94C60084E491E00E9499
S1130210EC00882344F09FEFE82FF0E0EC5BFE4F06
S113022090838F5FCAF764E471E080E09EE30E94EC
S1130230DB000FB6F894A8958091600088618093E4
S11302406000109260000FBEE0914201F091430102
S1130250099508951F920F920FB60F9211248F9350
S11302609F9395B180E2892785B9A8959F918F9135
S11302700F900FBE0F901F9018950E945300309955
S11302802BC02D9A60E072EC81E090E00E945A004D
S11302909EE088E10FB6F894A895809360000FBEA5
S11302A09093600088E191E00E94C60087E391E0AA
S11302B00E94C6000E94BE00823559F018F48734AB
S11302C031F0F0CF873619F0823719F0EBCF0E9466
S11302D001010E941901E6CFE0914201F09143012E
S11302E0099580E090E00895A1E21A2EAA1BBB1B99
S11302F0FD010DC0AA1FBB1FEE1FFF1FA217B307EE
S1130300E407F50720F0A21BB30BE40BF50B661F03
S1130310771F881F991F1A9469F7609570958095C7
S113032090959B01AC01BD01CF010895F894FFCFD6
S113033055706461746520472D636F646500557062
S1130340646174652046570047202D203F3F3F3F9E
S11303503F3F3F3F20672D3F3F3F3F203F3F3F3FD1
S11303603F3F3F3F3F0A0052202D203F3F3F3F3F4A
S10503700A007D
S9030000FC
