S01400004D79426F6F746C6F616465722E737265633F
S11370000C9434380C9451380C9451380C945138F5
S11370100C9451380C9451380C94283A0C945138EF
S11370200C9451380C9451380C9451380C945138B8
S11370300C9451380C9451380C9451380C945138A8
S11370400C9451380C9451380C9451380C94513898
S11370500C9451380C9451380C9451380C94513888
S11370600C9451380C94513811241FBECFEFD8E042
S1137070DEBFCDBF11E0A0E0B1E0EAEAF5E702C06F
S113708005900D92A631B107D9F721E0A6E1B1E050
S113709001C01D92A53AB207E1F70E94633A0C942D
S11370A0D33A0C940038F89490E0FC01EE0FFF1FE3
S11370B08E0F9F1FFC01E456FE4F108261831282E3
S11370C078940895F89490E0FC01EE0FFF1F8E0F62
S11370D09F1FFC01E456FE4F10821282789408959B
S11370E0CF93282F30E0F901EE0FFF1F2E0F3F1F23
S11370F0F901E456FE4FC281C1110E9462388C2FFF
S1137100CF91089590E4699FB001112450E0440F99
S1137110551F440F551F440F551F883010F490E03D
S113712001C090E28770482B462B492BA89584B761
S1137130877F84BFE0E6F0E08081886180834083BC
S1137140089581E085BF82E085BF089581E088B914
S1137150389880E284B985B90895611521EE7207E3
S11371608105910548F5DC01CB01880F991FAA1F01
S1137170BB1F880F991FAA1FBB1F9C01AD01220FC3
S1137180331F441F551F60E074E284EF90E00E94B7
S1137190B13ADA01C9010197A109B109AC01BD01F4
S11371A07695679557954795942F252FE0ECF0E059
S11371B080818D7F808322C09B01AC01220F331F0D
S11371C0441F551F220F331F441F551F60E074E2F4
S11371D084EF90E00E94B13ADA01C9010197A10954
S11371E0B109AC01BD017695679557954795942FE4
S11371F0252FE0ECF0E08081826080832093C5003D
S11372009093C40086E08093C20088E18093C1001B
S11372100895E0ECF0E0908195FFFDCF8093C600E7
S11372200895E0ECF0E080818823ECF78091C600BB
S113723008950F931F93CF93DF938C01662331F04E
S11372400E941139E801888381E01CC063E081E079
S11372500E94533880E0ECE9F1E0A0ECB0E030E2C9
S113726046EC50E021E00BC09C91992344F485B195
S1137270832785B9EA018881E8018883822F958173
S1137280992391F3DF91CF911F910F910895CF939B
S1137290DF93EC018881882359F08A3019F48DE05A
S11372A00E94093989910E94093988818111F5CF99
S11372B0DF91CF910895FC018081803539F08235CA
S11372C029F080E091E00E94473980E008950F930F
S11372D01F93CF93DF931092180110E0C8E1D1E01F
S11372E001E00DC088818B3549F08D3519F41123E7
S11372F031F00DC0112319F0219601C0102F60E068
S1137300CE010E9419398111EDCF8FEF04C088E1BD
S113731091E00E945B39DF91CF911F910F91089505
S1137320CF93DF939B01EB01C058DF4FDB0171E08A
S1137330AC01421B530B2C91FA01EA0FFB1F11966F
S11373409C91119730E0392B090170935700E8950F
S113735011241296AC17BD0771F7DF91CF910895F0
S11373601F93CF93DF93EC011FB7F894F999FECFE5
S113737083E0FE0180935700E89507B600FCFDCF3B
S1137380CE010E94903985E0FE0180935700E89574
S113739007B600FCFDCF81E180935700E8951FBF3D
S11373A0DF91CF911F910895EF92FF920F931F9356
S11373B0CF937C018C01C0E005C00F5F1F4FCF5FEE
S11373C0C43841F060E0C8010E9419398111F5CF39
S11373D0C43859F4F701EE57FF4F81E02081318121
S11373E02F3F3F4F19F080E001C080E08170CF91C2
S11373F01F910F91FF90EF900895CF9388E191E052
S11374000E94D439C82F882359F06AE171E0809131
S11374101801909119010E94B03986E091E002C0F0
S113742080E091E00E9447398C2FCF9108950FB6E8
S1137430F894A89580916000886180936000109210
S113744060000FBEE0911601F091170109950895AF
S11374501F920F920FB60F9211242F933F934F93C5
S11374608F939F93EF93FF93A895E0E6F0E08081DC
S11374708064808380E090E041E0FC01EE0FFF1F18
S1137480E80FF91FE456FE4F20812F5F20833181DE
S1137490231309C0FC01EE0FFF1FE80FF91FE45688
S11374A0FE4F4283108201968330910531F7FF919C
S11374B0EF919F918F914F913F912F910F900FBE1C
S11374C00F901F901895CF930FB6F894A8958091BC
S11374D06000886180936000109260000FBE0E947B
S11374E0A1380E94A6387894309932C060E072ECDA
S11374F081E090E00E94AD3840E061E080E00E94CD
S1137500823861E282E00E94533861E280E00E94A6
S11375105338C0E20E946739803519F0823521F072
S113752005C00E94FD3902C00E94173A80E00E9403
S11375307038882319F085B18C2785B982E00E94C0
S11375407038882339F38CE091E00E944739E2CF08
S1137550E0911601F0911701099580E090E0CF9138
S11375600895A1E21A2EAA1BBB1BFD010DC0AA1F80
S1137570BB1FEE1FFF1FA217B307E407F50720F098
S1137580A21BB30BE40BF50B661F771F881F991F13
S11375901A9469F760957095809590959B01AC015C
S10D75A0BD01CF010895F894FFCF58
S11375AA5B6E616B5D005B61636B5D005B4D79478C
S10975BA72626C5D00002A
S90370008C
