S01400004D79426F6F746C6F616465722E737265633F
S11370000C9434380C9451380C9451380C945138F5
S11370100C9451380C9451380C94FE390C9451381A
S11370200C9451380C9451380C9451380C945138B8
S11370300C9451380C9451380C9451380C945138A8
S11370400C9451380C9451380C9451380C94513898
S11370500C9451380C9451380C9451380C94513888
S11370600C9451380C94513811241FBECFEFD8E042
S1137070DEBFCDBF11E0A0E0B1E0E6EFF4E702C06F
S113708005900D92A838B107D9F722E0A8E8B1E03D
S113709001C01D92AB30B207E1F70E941D3A0C9477
S11370A0793A0C94003890E4699FB001112450E0BF
S11370B0440F551F440F551F440F551F883010F4BB
S11370C090E001C090E28770482B462B492BA8958D
S11370D084B7877F84BFE0E6F0E0808188618083A5
S11370E04083089581E085BF82E085BF089581E0F3
S11370F088B9389880E284B985B90895611521EE7C
S113710072078105910548F5DC01CB01880F991FB1
S1137110AA1FBB1F880F991FAA1FBB1F9C01AD018B
S1137120220F331F441F551F60E074E284EF90E088
S11371300E94573ADA01C9010197A109B109AC01CA
S1137140BD017695679557954795942F252FE0ECCB
S1137150F0E080818D7F808322C09B01AC01220FEF
S1137160331F441F551F220F331F441F551F60E058
S113717074E284EF90E00E94573ADA01C901019762
S1137180A109B109AC01BD0176956795579547955D
S1137190942F252FE0ECF0E080818260808320939F
S11371A0C5009093C40086E08093C20088E1809378
S11371B0C1000895E0ECF0E0908195FFFDCF80934D
S11371C0C6000895E0ECF0E080818823ECF780911C
S11371D0C6000895DC01662329F0F894A89510925E
S11371E08801789420E2E0ECF0E00BC095B192279E
S11371F095B9908199232CF48091C6008C9381E0F9
S11372000895662399F390918801992379F380E096
S11372100895CF93DF93EC018881882359F08A3055
S113722019F48DE00E94DA3889910E94DA38888155
S11372308111F5CFDF91CF910895CF93DF939B0117
S1137240EB01C058DF4FDB0171E0AC01421B530B73
S11372502C91FA01EA0FFB1F11969C91119730E0D3
S1137260392B090170935700E89511241296AC1735
S1137270BD0771F7DF91CF9108951F93CF93DF93EB
S1137280EC011FB7F894F999FECF83E0FE018093D7
S11372905700E89507B600FCFDCFCE010E941D39CA
S11372A085E0FE0180935700E89507B600FCFDCF0A
S11372B081E180935700E8951FBFDF91CF911F9123
S11372C008957F928F929F92AF92BF92CF92DF9256
S11372D0EF92FF920F931F93CF93DF9380E091E09F
S11372E00E940939E12CF12C712C0F2EC12CF8E6E7
S11372F0DF2EF02D0F2EF3E08F2EF02D9924939492
S1137300D92DBB24BA94A12C772051F007B600FCE8
S1137310FDCFF999FECFF60180925700E8952CC075
S1137320C0E00C2F10E0C701800F911F6D2F1816BD
S113733019060CF06A2DC80185579E4F0E94EA3841
S1137340882349F0F801E557FE4F80810E94DA381E
S1137350CF5F3AF70CC0CC234CF0EC2FF0E0E557AC
S1137360FE4FB082CF5FCAF7792C01C0792C6BE84D
S113737071E0C6010E943D39F0E8CF0ED11C8FEFB9
S1137380E81AF80AC114E0E7DE0609F0BDCFC0E050
S113739001C0CF5F61E08BE891E00E94EA3881117F
S11373A0F8CFCC2321F080E191E00E94093987E5F0
S11373B091E00E94093981E180935700E895DF91BB
S11373C0CF911F910F91FF90EF90DF90CF90BF90DE
S11373D0AF909F908F907F9008950FB6F894A895E2
S11373E080916000886180936000109260000FBEFD
S11373F0E0918901F0918A01099508951F920F92F5
S11374000FB60F9211248F939F93EF93FF93A89538
S1137410E0E6F0E080818064808381E080938801ED
S113742095B180E2892785B9FF91EF919F918F9162
S11374300F900FBE0F901F90189540E061E086E01A
S11374400E9453380E9472380E9477387894309999
S113745026C060E072EC81E090E00E947E3840E05B
S113746061E084E00E9453388AE691E00E94093981
S11374708DE791E00E9409390E94E238823561F07B
S113748018F4873431F0F0CF873619F0823721F0C1
S1137490EBCF0E946139E8CF0E94ED39E5CFE0914E
S11374A08901F0918A01099580E090E00895A1E2B4
S11374B01A2EAA1BBB1BFD010DC0AA1FBB1FEE1F6A
S11374C0FF1FA217B307E407F50720F0A21BB30BB5
S11374D0E40BF50B661F771F881F991F1A9469F731
S11374E060957095809590959B01AC01BD01CF018D
S10974F00895F894FFCF9B
S11374F655706461746520472D636F64653A0A00AC
S11375060A5741524E494E473A2046696C652065F2
S113751678636565647320746865206D6178696D48
S1137526756D20672D636F64652073697A652032F3
S11375363034382062797465732C207472756E63E6
S1137546617465642E0A000A446F6E650A005570FC
S1137556646174652046573A0A0047202D207570E9
S11375666461746520672D636F64650A0052202D7B
S10B75762072657365740A00BC
S90370008C
