S01400004D79426F6F746C6F616465722E737265633F
S11370000C9434380C9451380C9451380C945138F5
S11370100C9451380C9451380C946E380C945138AB
S11370200C9451380C9451380C9451380C945138B8
S11370300C9451380C9451380C9451380C945138A8
S11370400C9451380C9451380C9451380C94513898
S11370500C9451380C9451380C9451380C94513888
S11370600C9451380C94513811241FBECFEFD8E042
S1137070DEBFCDBF11E0A0E0B1E0E6E1F1E702C080
S113708005900D92A030B107D9F721E0A0E0B1E05E
S113709001C01D92A030B207E1F70E9481380C9420
S11370A089380C940038F894A89584B7877F84BFF6
S11370B0E0E6F0E080818861808386E480837894D0
S11370C00895E1E6F0E080E880831082089581E08D
S11370D088B9389880E284B985B908951F920F92CF
S11370E00FB60F9211248F939F9395B180E2892755
S11370F085B9A8959F918F910F900FBE0F901F9007
S113710018950E9461380E94673886E00E945338BF
S1097110FFCFF894FFCF4D
S90370008C
