S01400004D79426F6F746C6F616465722E737265633F
S11370000C9434380C9451380C9451380C945138F5
S11370100C9451380C9451380C94EF390C94513829
S11370200C9451380C9451380C9451380C945138B8
S11370300C9451380C9451380C9451380C945138A8
S11370400C9451380C9451380C9451380C94513898
S11370500C9451380C9451380C9451380C94513888
S11370600C9451380C94513811241FBECFEFD8E042
S1137070DEBFCDBF11E0A0E0B1E0EEE6F5E702C06F
S113708005900D92A432B107D9F721E0A4E2B1E052
S113709001C01D92A33BB207E1F70E943D3A0C9454
S11370A0B53A0C940038F89490E0FC01EE0FFF1F01
S11370B08E0F9F1FFC01E655FE4F108261831282E2
S11370C078940895F89490E0FC01EE0FFF1F8E0F62
S11370D09F1FFC01E655FE4F10821282789408959A
S11370E0CF93282F30E0F901EE0FFF1F2E0F3F1F23
S11370F0F901E655FE4FC281C1110E9462388C2FFE
S1137100CF91089590E4699FB001112450E0440F99
S1137110551F440F551F440F551F883010F490E03D
S113712001C090E28770482B462B492BA89584B761
S1137130877F84BFE0E6F0E08081886180834083BC
S1137140089581E085BF82E085BF089581E088B914
S1137150389880E284B985B90895611521EE7207E3
S11371608105910548F5DC01CB01880F991FAA1F01
S1137170BB1F880F991FAA1FBB1F9C01AD01220FC3
S1137180331F441F551F60E074E284EF90E00E94B7
S1137190933ADA01C9010197A109B109AC01BD0112
S11371A07695679557954795942F252FE0ECF0E059
S11371B080818D7F808322C09B01AC01220F331F0D
S11371C0441F551F220F331F441F551F60E074E2F4
S11371D084EF90E00E94933ADA01C9010197A10972
S11371E0B109AC01BD017695679557954795942FE4
S11371F0252FE0ECF0E08081826080832093C5003D
S11372009093C40086E08093C20088E18093C1001B
S11372100895E0ECF0E0908195FFFDCF8093C600E7
S11372200895E0ECF0E080818823ECF78091C600BB
S11372300895CF93DF93EC018881882359F08A3035
S113724019F48DE00E94093989910E9409398881D5
S11372508111F5CFDF91CF910895FC0180818035B4
S113726049F0823539F0893429F080E091E00E94B8
S1137270193980E008950F931F93CF93DF931092F1
S1137280260110E0C6E2D1E001E001C0102F0E9407
S1137290113988838B35D1F38D3519F41123B9F362
S11372A004C01123A1F32196F2CF86E291E00E945B
S11372B02D39DF91CF911F910F910895CF93DF93D3
S11372C09B01EB01C058DF4FDB0171E0AC01421BB5
S11372D0530B2C91FA01EA0FFB1F11969C91119705
S11372E030E0392B090170935700E8951124129668
S11372F0AC17BD0771F7DF91CF9108951F93CF931A
S1137300DF93EC011FB7F894F999FECF83E0FE01F7
S113731080935700E89507B600FCFDCFCE010E948C
S11373205E3985E0FE0180935700E89507B600FCBE
S1137330FDCF81E180935700E8951FBFDF91CF9186
S11373401F910895EF92FF920F931F93CF93DF93B2
S11373507C018C010C571F4FEC010E941139899359
S11373600C171D07D1F7F701EE57FF4F81E020817D
S113737031812F3F3F4F09F080E0DF91CF911F9182
S11373800F91FF90EF900895CF9386E291E00E94D1
S1137390A239C82F882359F068E271E08091260150
S11373A0909127010E947E3986E091E002C080E03E
S11373B091E00E9419398C2FCF9108950FB6F8945B
S11373C0A8958091600088618093600010926000AD
S11373D00FBEE0912401F0912501099508951F92B3
S11373E00F920FB60F9211242F933F934F935F93F5
S11373F06F937F938F939F93AF93BF93EF93FF9379
S1137400A895E0E6F0E080818064808380E090E0ED
S113741041E0FC01EE0FFF1FE80FF91FE655FE4F98
S113742020812F5F20833181231309C0FC01EE0FDB
S1137430FF1FE80FF91FE655FE4F428310820196A5
S11374408330910531F780E00E947038882321F061
S113745095B180E2892785B9FF91EF91BF91AF91F2
S11374609F918F917F916F915F914F913F912F9158
S11374700F900FBE0F901F901895CF93DF930FB608
S1137480F894A895809160008861809360001092C0
S113749060000FBE0E94A1380E94A63878943099EB
S11374A038C060E072EC81E090E00E94AD3840E0CA
S11374B061E080E00E94823866E082E00E945338F6
S11374C061E280E00E945338C0E0D1E00E943B3981
S11374D0803571F0823579F0893479F48CE091E06B
S11374E00E94193966E080E00E945338CD2FEECF18
S11374F00E94C43902C00E94DE39C111E7CF82E084
S11375000E947038882311F38AE191E00E941939AE
S1137510DDCFE0912401F0912501099580E090E010
S1137520DF91CF910895A1E21A2EAA1BBB1BFD0186
S11375300DC0AA1FBB1FEE1FFF1FA217B307E4074E
S1137540F50720F0A21BB30BE40BF50B661F771FA6
S1137550881F991F1A9469F7609570958095909586
S11175609B01AC01BD01CF010895F894FFCF4B
S113756E5B6E616B5D005B61636B5D005B4D7947C8
S113757E72626C2076312E305D005B4D79477262FB
S107758E6C5D00002C
S90370008C
