S01400004D79426F6F746C6F616465722E737265633F
S11370000C9434380C9451380C9451380C945138F5
S11370100C9451380C9451380C94B3390C94513865
S11370200C9451380C9451380C9451380C945138B8
S11370300C9451380C9451380C9451380C945138A8
S11370400C9451380C9451380C9451380C94513898
S11370500C9451380C9451380C9451380C94513888
S11370600C9451380C94513811241FBECFEFD8E042
S1137070DEBFCDBF11E0A0E0B1E0E4ECF4E702C074
S113708005900D92A038B107D9F722E0A0E8B1E04D
S113709001C01D92AB30B207E1F70E94013A0C9493
S11370A0603A0C940038F89490E0FC01EE0FFF1F56
S11370B08E0F9F1FFC01EE5FFD4F108261831282D1
S11370C078940895F89490E0FC01EE0FFF1F8E0F62
S11370D09F1FFC01EE5FFD4F108212827894089589
S11370E0CF93282F30E0F901EE0FFF1F2E0F3F1F23
S11370F0F901EE5FFD4FC281C1110E9462388C2FED
S1137100CF91089590E4699FB001112450E0440F99
S1137110551F440F551F440F551F883010F490E03D
S113712001C090E28770482B462B492BA89584B761
S1137130877F84BFE0E6F0E08081886180834083BC
S1137140089581E085BF82E085BF089581E088B914
S1137150389880E284B985B90895611521EE7207E3
S11371608105910548F5DC01CB01880F991FAA1F01
S1137170BB1F880F991FAA1FBB1F9C01AD01220FC3
S1137180331F441F551F60E074E284EF90E00E94B7
S11371903E3ADA01C9010197A109B109AC01BD0167
S11371A07695679557954795942F252FE0ECF0E059
S11371B080818D7F808322C09B01AC01220F331F0D
S11371C0441F551F220F331F441F551F60E074E2F4
S11371D084EF90E00E943E3ADA01C9010197A109C7
S11371E0B109AC01BD017695679557954795942FE4
S11371F0252FE0ECF0E08081826080832093C5003D
S11372009093C40086E08093C20088E18093C1001B
S11372100895E0ECF0E0908195FFFDCF8093C600E7
S11372200895E0ECF0E080818823ECF78091C600BB
S113723008950F931F93CF93DF938C01662331F04E
S11372400E941139E801888381E01CC063E081E079
S11372500E94533880E0E2E0F2E0A0ECB0E030E2DB
S113726046EC50E021E00BC09C91992344F485B195
S1137270832785B9EA018881E8018883822F958173
S1137280992391F3DF91CF911F910F910895CF939B
S1137290DF93EC018881882359F08A3019F48DE05A
S11372A00E94093989910E94093988818111F5CF99
S11372B0DF91CF910895CF93DF93EC0188818834D7
S11372C028F4863428F4882371F007C0823529F421
S11372D080E091E00E94473906C086E091E00E9478
S11372E0473980E001C08881DF91CF9108950F93E1
S11372F01F93CF93DF931092820110E0C2E8D1E094
S113730001E00DC088818B3549F08D3519F41123C6
S113731031F00DC0112319F0219601C0102F60E047
S1137320CE010E9419398111EDCF112329F082E891
S113733091E00E945B3901C08FEFDF91CF911F91E3
S11373400F9108950FB6F894A89580916000886114
S113735080936000109260000FBEE0918001F09174
S11373608101099508951F920F920FB60F9211246F
S11373702F933F934F935F936F937F938F939F9339
S1137380AF93BF93EF93FF93A895E0E6F0E080817D
S11373908064808380E090E041E0FC01EE0FFF1FF9
S11373A0E80FF91FEE5FFD4F20812F5F20833181AD
S11373B0231309C0FC01EE0FFF1FE80FF91FEE5F56
S11373C0FD4F4283108201968330910531F780E0AE
S11373D00E947038882321F095B180E2892785B90D
S11373E0FF91EF91BF91AF919F918F917F916F9199
S11373F05F914F913F912F910F900FBE0F901F906F
S113740018950FB6F894A8958091600088618093D0
S11374106000109260000FBE0E94A1380E94A6383E
S11374207894309923C060E072EC81E090E00E948F
S1137430AD3840E061E080E00E94823861E282E0A1
S11374400E94533861E280E00E9453380E947739E9
S1137450823511F40E94A23982E00E947038882398
S1137460A9F386E791E00E944739F0CFE0918001CB
S1137470F0918101099580E090E00895A1E21A2E2F
S1137480AA1BBB1BFD010DC0AA1FBB1FEE1FFF1FC4
S1137490A217B307E407F50720F0A21BB30BE40B14
S11374A0F50B661F771F881F991F1A9469F760955B
S11374B07095809590959B01AC01BD01CF01089515
S10774C0F894FFCF6A
S11374C45B61636B5D005B6E616B5D005570646151
S11374D4746520472D636F64653A0A000A57415264
S11374E44E494E473A2046696C6520657863656564
S11374F4647320746865206D6178696D756D2067A7
S11375042D636F64652073697A65203230343820C2
S113751462797465732C207472756E636174656426
S11375242E0A000A446F6E650A005570646174651E
S11375342046573A0A005B4D794772626C5D00003D
S90370008C
