:107800000C94343C0C94513C0C94513C0C94513CE1
:107810000C94513C0C94513C0C94383E0C94513CCB
:107820000C94513C0C94513C0C94513C0C94513CA4
:107830000C94513C0C94513C0C94513C0C94513C94
:107840000C94513C0C94513C0C94513C0C94513C84
:107850000C94513C0C94513C0C94513C0C94513C74
:107860000C94513C0C94513C11241FBECFEFD8E036
:10787000DEBFCDBF11E0A0E0B1E0E4E0FEE702C072
:1078800005900D92AC32B107D9F721E0ACE2B1E03E
:1078900001C01D92AC3BB207E1F70E94863E0C94FA
:1078A000003F0C94003CF89490E0FC01EE0FFF1FA9
:1078B0008E0F9F1FFC01ED54FE4F108261831282D8
:1078C00078940895F89490E0FC01EE0FFF1F8E0F5E
:1078D0009F1FFC01ED54FE4F108212827894089590
:1078E000CF93282F30E0F901EE0FFF1F2E0F3F1F1F
:1078F000F901ED54FE4FC281C1110E94623C8C2FF0
:10790000CF91089590E4699FB001112450E0440F95
:10791000551F440F551F440F551F883010F490E039
:1079200001C090E28770482B462B492BA89584B75D
:10793000877F84BFE0E6F0E08081886180834083B8
:10794000089581E088B9389880E284B985B90895AE
:10795000611521EE72078105910548F5DC01CB0127
:10796000880F991FAA1FBB1F880F991FAA1FBB1F33
:107970009C01AD01220F331F441F551F60E074E2CC
:1079800084EF90E00E94DE3EDA01C9010197A1096F
:10799000B109AC01BD017695679557954795942F30
:1079A000252FE0ECF0E080818D7F808322C09B0159
:1079B000AC01220F331F441F551F220F331F441FDA
:1079C000551F60E074E284EF90E00E94DE3EDA0131
:1079D000C9010197A109B109AC01BD01769567956F
:1079E00057954795942F252FE0ECF0E08081826039
:1079F00080832093C5009093C40086E08093C200EA
:107A000088E18093C1000895E0ECF0E0908195FF5B
:107A1000FDCF8093C6000895E0ECF0E080818823DC
:107A2000ECF78091C6000895CF93DF93EC01888135
:107A3000882359F08A3019F48DE00E94043D899121
:107A40000E94043D88818111F5CFDF91CF91089587
:107A5000FC018081803549F0823539F0893429F084
:107A600080E091E00E94143D80E008950F931F9301
:107A7000CF93DF9310922E0110E0CEE2D1E001E02F
:107A800001C0102F0E940C3D88838B35D1F38D35BA
:107A900019F41123B9F304C01123A1F32196F2CFF5
:107AA0008EE291E00E94283DDF91CF911F910F91CE
:107AB0000895CF93DF939B01EB01C058DF4FDB01AB
:107AC00071E0AC01421B530B2C91FA01EA0FFB1F32
:107AD00011969C91119730E0392B09017093570052
:107AE000E89511241296AC17BD0771F7DF91CF917D
:107AF00008951F93CF93DF93EC011FB7F894F99982
:107B0000FECF83E0FE0180935700E89507B600FCA6
:107B1000FDCFCE010E94593D85E0FE0180935700C4
:107B2000E89507B600FCFDCF81E180935700E8950A
:107B30001FBFDF91CF911F910895FC01680F791F3E
:107B40008FEF9FEF10C02191922728E099233CF4FA
:107B5000880F991F31E2832730E1932702C0880FF5
:107B6000991F215099F7E617F70769F70895CF9203
:107B7000DF92EF92FF920F931F93CF93DF938C01CD
:107B80007C018FEFE81AF80A0E940C3DF80180830F
:107B9000882389F0E701D12C21960E940C3DFE013B
:107BA00031978083D394F8019081D916A8F382E8A5
:107BB000891B19F406C0E70182E89FEF9993815071
:107BC000E9F70E940C3D6801F3E8CF0ED11C90E06C
:107BD000F601918380830E940C3DF601C081D18122
:107BE000D82BD183C083F801608170E0C7010E9467
:107BF0009D3D21E0C817D90709F020E0822FDF91D1
:107C0000CF911F910F91FF90EF90DF90CF9008954B
:107C1000CF938EE291E00E94B73DC82F882359F0A0
:107C200061E371E080912F01909130010E94793DD4
:107C30008FE091E002C086E091E00E94143D8C2F1D
:107C4000CF9108950FB6F894A8958091600088614F
:107C500080936000109260000FBE98E088E10FB63C
:107C6000F894A895809360000FBE90936000FFCFBA
:107C70001F920F920FB60F9211242F933F934F93A1
:107C80005F936F937F938F939F93AF93BF93EF9384
:107C9000FF93A895E0E6F0E080818064808380E037
:107CA00090E041E0FC01EE0FFF1FE80FF91FED54DB
:107CB000FE4F20812F5F20833181231309C0FC01F7
:107CC000EE0FFF1FE80FF91FED54FE4F42831082A5
:107CD00001968330910531F780E00E94703C882343
:107CE00021F095B180E2892785B9FF91EF91BF918D
:107CF000AF919F918F917F916F915F914F913F9144
:107D00002F910F900FBE0F901F901895CF93DF9378
:107D10000FB6F894A8958091600088618093600008
:107D2000109260000FBE0E94A13C30993DC081E0DE
:107D300085BF82E085BF789460E072EC81E090E0DE
:107D40000E94A83C40E061E080E00E94823C66E046
:107D500082E00E94533C61E280E00E94533CC0E01C
:107D6000D1E00E94363D803571F0823579F089345A
:107D700079F485E191E00E94143D66E080E00E9484
:107D8000533CCD2FEECF0E94083E02C00E94223EFF
:107D9000C111E7CF82E00E94703C882311F383E297
:107DA00091E00E94143DDDCFE0912C01F0912D0176
:107DB000099580E090E0DF91CF910895A1E21A2E1D
:107DC000AA1BBB1BFD010DC0AA1FBB1FEE1FFF1F7F
:107DD000A217B307E407F50720F0A21BB30BE40BCF
:107DE000F50B661F771F881F991F1A9469F7609516
:107DF0007095809590959B01AC01BD01CF010895D0
:047E0000F894FFCF24
:107E04005B6E616B5D005B6E616B20435243005B94
:107E140061636B5D005B4D794772626C2076312E35
:0C7E2400305D005B4D794772626C5D00C0
:040000030000780081
:00000001FF
