S01400004D79426F6F746C6F616465722E737265633F
S11370000C9434380C9451380C9451380C945138F5
S11370100C9451380C9451380C946C3A0C945138AB
S11370200C9451380C9451380C9451380C945138B8
S11370300C9451380C9451380C9451380C945138A8
S11370400C9451380C9451380C9451380C94513898
S11370500C9451380C9451380C9451380C94513888
S11370600C9451380C94513811241FBECFEFD8E042
S1137070DEBFCDBF11E0A0E0B1E0EEE1F6E702C073
S113708005900D92A038B107D9F722E0A0E8B1E04D
S113709001C01D92AE30B207E1F70E94AE3A0C94E3
S11370A00D3B0C940038F89490E0FC01EE0FFF1FA8
S11370B08E0F9F1FFC01EE5FFD4F108261831282D1
S11370C078940895F89490E0FC01EE0FFF1F8E0F62
S11370D09F1FFC01EE5FFD4F108212827894089589
S11370E0CF93282F30E0F901EE0FFF1F2E0F3F1F23
S11370F0F901EE5FFD4FC281C1110E9462388C2FED
S1137100CF91089590E4699FB001112450E0440F99
S1137110551F440F551F440F551F883010F490E03D
S113712001C090E28770482B462B492BA89584B761
S1137130877F84BFE0E6F0E08081886180834083BC
S1137140089581E085BF82E085BF089581E088B914
S1137150389880E284B985B90895611521EE7207E3
S11371608105910548F5DC01CB01880F991FAA1F01
S1137170BB1F880F991FAA1FBB1F9C01AD01220FC3
S1137180331F441F551F60E074E284EF90E00E94B7
S1137190EB3ADA01C9010197A109B109AC01BD01BA
S11371A07695679557954795942F252FE0ECF0E059
S11371B080818D7F808322C09B01AC01220F331F0D
S11371C0441F551F220F331F441F551F60E074E2F4
S11371D084EF90E00E94EB3ADA01C9010197A1091A
S11371E0B109AC01BD017695679557954795942FE4
S11371F0252FE0ECF0E08081826080832093C5003D
S11372009093C40086E08093C20088E18093C1001B
S11372100895E0ECF0E0908195FFFDCF8093C600E7
S113722008950F931F93CF938C01C62F662391F07B
S11372306AE082E00E9453380DC08081882374F490
S113724095B180E2892785B98091C600F8018083D1
S113725081E009C090910A02E0ECF0E0CC2369F3EC
S1137260992359F380E0CF911F910F910895CF9303
S1137270DF93EC018881882359F08A3019F48DE07A
S11372800E94093989910E94093988818111F5CFB9
S1137290DF91CF910895CF93DF93EC0188818834F7
S11372A028F4863428F4882371F007C0823529F441
S11372B080E091E00E94373906C086E091E00E94A8
S11372C0373980E001C08881DF91CF9108951F9301
S11372D0CF93DF931092820110E0C2E8D1E00DC099
S11372E088818B3549F08D3519F4112331F00BC0A9
S11372F0112319F0219601C011E061E0CE010E9432
S113730011398111EDCF82E891E00E944B39DF9170
S1137310CF911F910895CF93DF939B01EB01C05848
S1137320DF4FDB0171E0AC01421B530B2C91FA01DE
S1137330EA0FFB1F11969C91119730E0392B09013C
S113734070935700E89511241296AC17BD0771F796
S1137350DF91CF9108951F93CF93DF93EC011FB773
S1137360F894F999FECF83E0FE0180935700E895E5
S113737007B600FCFDCFCE010E948B3985E0FE01EB
S113738080935700E89507B600FCFDCF81E1809318
S11373905700E8951FBFDF91CF911F9108957F9209
S11373A08F929F92AF92BF92CF92DF92EF92FF9211
S11373B00F931F93CF93DF938CE091E00E943739B2
S11373C0E12CF12C712C0F2EC12CF8E6DF2EF02DC0
S11373D00F2EF3E08F2EF02D99249394D92DBB24F6
S11373E0BA94A12C772051F007B600FCFDCFF9998F
S11373F0FECFF60180925700E8952CC0C0E00C2F18
S113740010E0C701800F911F6D2F181619060CF09C
S11374106A2DC8018E579E4F0E941139882349F066
S1137420F801EE57FE4F80810E940939CF5F3AF789
S11374300CC0CC234CF0EC2FF0E0EE57FE4FB082A2
S1137440CF5FCAF7792C01C0792C62E871E0C601DC
S11374500E94AB39F0E8CF0ED11C8FEFE81AF80A7E
S1137460C114E0E7DE0609F0BDCFC0E001C0CF5F84
S113747061E082E891E00E9411398111F8CFCC23B8
S113748021F08CE191E00E94373983E691E00E947B
S1137490373981E180935700E895DF91CF911F91AF
S11374A00F91FF90EF90DF90CF90BF90AF909F909F
S11374B08F907F9008950FB6F894A89580916000FE
S11374C0886180936000109260000FBEE09180019B
S11374D0F0918101099508951F920F920FB60F92B2
S11374E011242F933F934F935F936F937F938F93C5
S11374F09F93AF93BF93EF93FF93A895E0E6F0E0DB
S1137500808180648083E2E0F2E02EE032E041E0BA
S113751080818F5F80839181891302C042831082AE
S11375203396E217F307A1F780E00E9470388823AE
S113753021F095B180E2892785B9FF91EF91BF9140
S1137540AF919F918F917F916F915F914F913F91F7
S11375502F910F900FBE0F901F90189540E061E09F
S113756086E00E9482380E94A1380E94A63878944E
S1137570309929C060E072EC81E090E00E94AD385F
S113758040E061E080E00E94823861E283E00E9492
S1137590533861E280E00E9453380E94673987348F
S11375A019F0823521F005C00E94CF3902C00E9433
S11375B05B3A83E00E947038882379F386E791E090
S11375C00E943739EACFE0918001F0918101099559
S11375D080E090E00895A1E21A2EAA1BBB1BFD01D6
S11375E00DC0AA1FBB1FEE1FFF1FA217B307E4079E
S11375F0F50720F0A21BB30BE40BF50B661F771FF6
S1137600881F991F1A9469F76095709580959095D5
S11176109B01AC01BD01CF010895F894FFCF9A
S113761E5B61636B5D005B6E616B5D0055706461F5
S113762E746520472D636F64653A0A000A57415208
S113763E4E494E473A2046696C6520657863656508
S113764E647320746865206D6178696D756D20674B
S113765E2D636F64652073697A6520323034382067
S113766E62797465732C207472756E6361746564CB
S113767E2E0A000A446F6E650A00557064617465C3
S113768E2046573A0A005B4D794772626C5D0000E2
S90370008C
