S01400004D79426F6F746C6F616465722E737265633F
S11370000C9434380C9451380C9451380C945138F5
S11370100C9451380C9451380C94803A0C94513897
S11370200C9451380C9451380C9451380C945138B8
S11370300C9451380C9451380C9451380C945138A8
S11370400C9451380C9451380C9451380C94513898
S11370500C9451380C9451380C9451380C94513888
S11370600C9451380C94513811241FBECFEFD8E042
S1137070DEBFCDBF11E0A0E0B1E0E6E5F6E702C077
S113708005900D92A038B107D9F722E0A0E8B1E04D
S113709001C01D92AB30B207E1F70E94C23A0C94D2
S11370A0293B0C940038F89490E0FC01EE0FFF1F8C
S11370B08E0F9F1FFC01EE5FFD4F108261831282D1
S11370C078940895F89490E0FC01EE0FFF1F8E0F62
S11370D09F1FFC01EE5FFD4F108212827894089589
S11370E0CF93282F30E0F901EE0FFF1F2E0F3F1F23
S11370F0F901EE5FFD4FC281C1110E9462388C2FED
S1137100CF91089590E4699FB001112450E0440F99
S1137110551F440F551F440F551F883010F490E03D
S113712001C090E28770482B462B492BA89584B761
S1137130877F84BFE0E6F0E08081886180834083BC
S1137140089581E085BF82E085BF089581E088B914
S1137150389880E284B985B90895611521EE7207E3
S11371608105910548F5DC01CB01880F991FAA1F01
S1137170BB1F880F991FAA1FBB1F9C01AD01220FC3
S1137180331F441F551F60E074E284EF90E00E94B7
S1137190073BDA01C9010197A109B109AC01BD019D
S11371A07695679557954795942F252FE0ECF0E059
S11371B080818D7F808322C09B01AC01220F331F0D
S11371C0441F551F220F331F441F551F60E074E2F4
S11371D084EF90E00E94073BDA01C9010197A109FD
S11371E0B109AC01BD017695679557954795942FE4
S11371F0252FE0ECF0E08081826080832093C5003D
S11372009093C40086E08093C20088E18093C1001B
S11372100895E0ECF0E0908195FFFDCF8093C600E7
S11372200895E0ECF0E080818823ECF78091C600BB
S113723008950F931F93CF93DF938C01662331F04E
S11372400E941139E801888381E01EC063E081E077
S11372500E94533880E0A2E0B2E0E0ECF0E030E2DB
S113726046EC50E021E00BC080818823ECF785B127
S1137270832785B9EA018881E8018883822F1596DE
S11372809C911597992381F3DF91CF911F910F91D1
S11372900895CF93DF93EC018881882359F08A30D5
S11372A019F48DE00E94093989910E940939888175
S11372B08111F5CFDF91CF910895CF93DF93EC0146
S11372C08881883428F4863428F4882371F007C030
S11372D0823529F480E091E00E94493906C086E0B5
S11372E091E00E94493980E001C08881DF91CF910B
S11372F008950F931F93CF93DF931092820110E0B0
S1137300C2E8D1E001E00DC088818B3549F08D35AC
S113731019F4112331F00BC0112319F0219601C087
S1137320102F60E0CE010E9419398111EDCF82E85F
S113733091E00E945D39DF91CF911F910F910895E3
S1137340CF93DF939B01EB01C058DF4FDB0171E06A
S1137350AC01421B530B2C91FA01EA0FFB1F11964F
S11373609C91119730E0392B090170935700E895EF
S113737011241296AC17BD0771F7DF91CF910895D0
S11373801F93CF93DF93EC011FB7F894F999FECFC5
S113739083E0FE0180935700E89507B600FCFDCF1B
S11373A0CE010E94A03985E0FE0180935700E89544
S11373B007B600FCFDCF81E180935700E8951FBF1D
S11373C0DF91CF911F9108957F928F929F92AF92F8
S11373D0BF92CF92DF92EF92FF920F931F93CF93BE
S11373E0DF938CE091E00E944939E12CF12C712C5F
S11373F00F2EC12CF8E6DF2EF02D0F2EF3E08F2E8A
S1137400F02D99249394D92DBB24BA94A12C7720E0
S113741051F007B600FCFDCFF999FECFF60180923A
S11374205700E8952BC0C0E00C2F10E0C701800F77
S1137430911F6D2F892B09F06A2DC8018E579E4F1D
S11374400E941939882349F0F801EE57FE4F8081D4
S11374500E940939CF5F42F70CC0CC234CF0EC2FCB
S1137460F0E0EE57FE4FB082CF5FCAF7792C01C02F
S1137470792C62E871E0C6010E94C039F0E8CF0EB1
S1137480D11C8FEFE81AF80AC114E0E7DE0609F010
S1137490BECFC0E001C0CF5F61E082E891E00E940E
S11374A019398111F8CFCC2321F08CE191E00E94AD
S11374B0493983E691E00E94493981E1809357007C
S11374C0E895DF91CF911F910F91FF90EF90DF909E
S11374D0CF90BF90AF909F908F907F9008950FB6FC
S11374E0F894A89580916000886180936000109260
S11374F060000FBEE0918001F0918101099508952B
S11375001F920F920FB60F9211242F933F934F9314
S11375105F936F937F938F939F93AF93BF93EF93F7
S1137520FF93A895E0E6F0E0808180648083E2E048
S1137530F2E02BE032E041E080818F5F8083918133
S1137540891302C0428310823396E217F307A1F72E
S113755080E00E947038882321F095B180E2892769
S113756085B9FF91EF91BF91AF919F918F917F91D9
S11375706F915F914F913F912F910F900FBE0F909C
S11375801F901895CF93DF9340E061E086E00E945E
S113759082380E94A1380E94A638789430992DC070
S11375A060E072EC81E090E00E94AD3840E061E080
S11375B080E00E94823861E282E00E94533861E2F6
S11375C080E00E945338C2E0D2E00E9479398734C7
S11375D019F0823521F005C00E94E43902C00E94EE
S11375E06F3A86E791E00E9449398885882369F3D8
S11375F086E791E00E944939E8CFE0918001F0915B
S11376008101099580E090E0DF91CF910895A1E296
S11376101A2EAA1BBB1BFD010DC0AA1FBB1FEE1F08
S1137620FF1FA217B307E407F50720F0A21BB30B53
S1137630E40BF50B661F771F881F991F1A9469F7CF
S113764060957095809590959B01AC01BD01CF012B
S10976500895F894FFCF39
S11376565B61636B5D005B6E616B5D0055706461BD
S1137666746520472D636F64653A0A000A574152D0
S11376764E494E473A2046696C65206578636565D0
S1137686647320746865206D6178696D756D206713
S11376962D636F64652073697A652032303438202F
S11376A662797465732C207472756E636174656493
S11376B62E0A000A446F6E650A005570646174658B
S11376C62046573A0A005B4D794772626C5D0000AA
S90370008C
